{
  "contractName": "Auction",
  "abi": [
    {
      "inputs": [
        {
          "internalType": "string",
          "name": "_name",
          "type": "string"
        },
        {
          "internalType": "string",
          "name": "_description",
          "type": "string"
        },
        {
          "internalType": "uint256",
          "name": "_initialBid",
          "type": "uint256"
        },
        {
          "internalType": "uint256",
          "name": "_bidIncrement",
          "type": "uint256"
        },
        {
          "internalType": "address",
          "name": "_creator",
          "type": "address"
        }
      ],
      "stateMutability": "nonpayable",
      "type": "constructor"
    },
    {
      "anonymous": false,
      "inputs": [
        {
          "indexed": false,
          "internalType": "address",
          "name": "winner",
          "type": "address"
        },
        {
          "indexed": false,
          "internalType": "uint256",
          "name": "amount",
          "type": "uint256"
        }
      ],
      "name": "AuctionEnded",
      "type": "event"
    },
    {
      "inputs": [],
      "name": "bidIncrement",
      "outputs": [
        {
          "internalType": "uint256",
          "name": "",
          "type": "uint256"
        }
      ],
      "stateMutability": "view",
      "type": "function"
    },
    {
      "inputs": [
        {
          "internalType": "address",
          "name": "",
          "type": "address"
        }
      ],
      "name": "bids",
      "outputs": [
        {
          "internalType": "uint256",
          "name": "",
          "type": "uint256"
        }
      ],
      "stateMutability": "view",
      "type": "function"
    },
    {
      "inputs": [],
      "name": "creator",
      "outputs": [
        {
          "internalType": "address",
          "name": "",
          "type": "address"
        }
      ],
      "stateMutability": "view",
      "type": "function"
    },
    {
      "inputs": [],
      "name": "description",
      "outputs": [
        {
          "internalType": "string",
          "name": "",
          "type": "string"
        }
      ],
      "stateMutability": "view",
      "type": "function"
    },
    {
      "inputs": [],
      "name": "ended",
      "outputs": [
        {
          "internalType": "bool",
          "name": "",
          "type": "bool"
        }
      ],
      "stateMutability": "view",
      "type": "function"
    },
    {
      "inputs": [],
      "name": "highestBid",
      "outputs": [
        {
          "internalType": "uint256",
          "name": "",
          "type": "uint256"
        }
      ],
      "stateMutability": "view",
      "type": "function"
    },
    {
      "inputs": [],
      "name": "highestBidder",
      "outputs": [
        {
          "internalType": "address",
          "name": "",
          "type": "address"
        }
      ],
      "stateMutability": "view",
      "type": "function"
    },
    {
      "inputs": [],
      "name": "initialBid",
      "outputs": [
        {
          "internalType": "uint256",
          "name": "",
          "type": "uint256"
        }
      ],
      "stateMutability": "view",
      "type": "function"
    },
    {
      "inputs": [],
      "name": "name",
      "outputs": [
        {
          "internalType": "string",
          "name": "",
          "type": "string"
        }
      ],
      "stateMutability": "view",
      "type": "function"
    },
    {
      "inputs": [],
      "name": "bid",
      "outputs": [],
      "stateMutability": "payable",
      "type": "function"
    },
    {
      "inputs": [],
      "name": "endAuction",
      "outputs": [],
      "stateMutability": "payable",
      "type": "function"
    },
    {
      "inputs": [],
      "name": "getAuctionDetails",
      "outputs": [
        {
          "internalType": "string",
          "name": "",
          "type": "string"
        },
        {
          "internalType": "string",
          "name": "",
          "type": "string"
        },
        {
          "internalType": "uint256",
          "name": "",
          "type": "uint256"
        },
        {
          "internalType": "uint256",
          "name": "",
          "type": "uint256"
        },
        {
          "internalType": "address",
          "name": "",
          "type": "address"
        },
        {
          "internalType": "address",
          "name": "",
          "type": "address"
        },
        {
          "internalType": "uint256",
          "name": "",
          "type": "uint256"
        },
        {
          "internalType": "bool",
          "name": "",
          "type": "bool"
        }
      ],
      "stateMutability": "view",
      "type": "function"
    }
  ],
  "bytecode": "0x60806040523480156200001157600080fd5b50604051620017f3380380620017f38339818101604052810190620000379190620002e8565b8460009081620000489190620005ef565b5083600190816200005a9190620005ef565b50826002819055508160038190555080600460006101000a81548173ffffffffffffffffffffffffffffffffffffffff021916908373ffffffffffffffffffffffffffffffffffffffff1602179055505050505050620006d6565b6000604051905090565b600080fd5b600080fd5b600080fd5b600080fd5b6000601f19601f8301169050919050565b7f4e487b7100000000000000000000000000000000000000000000000000000000600052604160045260246000fd5b6200011e82620000d3565b810181811067ffffffffffffffff8211171562000140576200013f620000e4565b5b80604052505050565b600062000155620000b5565b905062000163828262000113565b919050565b600067ffffffffffffffff821115620001865762000185620000e4565b5b6200019182620000d3565b9050602081019050919050565b60005b83811015620001be578082015181840152602081019050620001a1565b60008484015250505050565b6000620001e1620001db8462000168565b62000149565b9050828152602081018484840111156200020057620001ff620000ce565b5b6200020d8482856200019e565b509392505050565b600082601f8301126200022d576200022c620000c9565b5b81516200023f848260208601620001ca565b91505092915050565b6000819050919050565b6200025d8162000248565b81146200026957600080fd5b50565b6000815190506200027d8162000252565b92915050565b600073ffffffffffffffffffffffffffffffffffffffff82169050919050565b6000620002b08262000283565b9050919050565b620002c281620002a3565b8114620002ce57600080fd5b50565b600081519050620002e281620002b7565b92915050565b600080600080600060a08688031215620003075762000306620000bf565b5b600086015167ffffffffffffffff811115620003285762000327620000c4565b5b620003368882890162000215565b955050602086015167ffffffffffffffff8111156200035a5762000359620000c4565b5b620003688882890162000215565b94505060406200037b888289016200026c565b93505060606200038e888289016200026c565b9250506080620003a188828901620002d1565b9150509295509295909350565b600081519050919050565b7f4e487b7100000000000000000000000000000000000000000000000000000000600052602260045260246000fd5b600060028204905060018216806200040157607f821691505b602082108103620004175762000416620003b9565b5b50919050565b60008190508160005260206000209050919050565b60006020601f8301049050919050565b600082821b905092915050565b600060088302620004817fffffffffffffffffffffffffffffffffffffffffffffffffffffffffffffffff8262000442565b6200048d868362000442565b95508019841693508086168417925050509392505050565b6000819050919050565b6000620004d0620004ca620004c48462000248565b620004a5565b62000248565b9050919050565b6000819050919050565b620004ec83620004af565b62000504620004fb82620004d7565b8484546200044f565b825550505050565b600090565b6200051b6200050c565b62000528818484620004e1565b505050565b5b8181101562000550576200054460008262000511565b6001810190506200052e565b5050565b601f8211156200059f5762000569816200041d565b620005748462000432565b8101602085101562000584578190505b6200059c620005938562000432565b8301826200052d565b50505b505050565b600082821c905092915050565b6000620005c460001984600802620005a4565b1980831691505092915050565b6000620005df8383620005b1565b9150826002028217905092915050565b620005fa82620003ae565b67ffffffffffffffff811115620006165762000615620000e4565b5b620006228254620003e8565b6200062f82828562000554565b600060209050601f83116001811462000667576000841562000652578287015190505b6200065e8582620005d1565b865550620006ce565b601f19841662000677866200041d565b60005b82811015620006a1578489015182556001820191506020850194506020810190506200067a565b86831015620006c15784890151620006bd601f891682620005b1565b8355505b6001600288020188555050505b505050505050565b61110d80620006e66000396000f3fe6080604052600436106100a75760003560e01c806367ea4abb1161006457806367ea4abb146101a65780637284e416146101d157806391f90157146101fc578063b3cc167a14610227578063d57bde7914610252578063fe67a54b1461027d576100a7565b806302d05d3f146100ac57806306fdde03146100d757806312fa6feb146101025780631998aeef1461012d5780633a6dcea21461013757806362ea82db14610169575b600080fd5b3480156100b857600080fd5b506100c1610287565b6040516100ce9190610ad0565b60405180910390f35b3480156100e357600080fd5b506100ec6102ad565b6040516100f99190610b7b565b60405180910390f35b34801561010e57600080fd5b5061011761033b565b6040516101249190610bb8565b60405180910390f35b61013561034e565b005b34801561014357600080fd5b5061014c61064b565b604051610160989796959493929190610bec565b60405180910390f35b34801561017557600080fd5b50610190600480360381019061018b9190610ca9565b6107ec565b60405161019d9190610cd6565b60405180910390f35b3480156101b257600080fd5b506101bb610804565b6040516101c89190610cd6565b60405180910390f35b3480156101dd57600080fd5b506101e661080a565b6040516101f39190610b7b565b60405180910390f35b34801561020857600080fd5b50610211610898565b60405161021e9190610ad0565b60405180910390f35b34801561023357600080fd5b5061023c6108be565b6040516102499190610cd6565b60405180910390f35b34801561025e57600080fd5b506102676108c4565b6040516102749190610cd6565b60405180910390f35b6102856108ca565b005b600460009054906101000a900473ffffffffffffffffffffffffffffffffffffffff1681565b600080546102ba90610d20565b80601f01602080910402602001604051908101604052809291908181526020018280546102e690610d20565b80156103335780601f1061030857610100808354040283529160200191610333565b820191906000526020600020905b81548152906001019060200180831161031657829003601f168201915b505050505081565b600760009054906101000a900460ff1681565b600254341015610393576040517f08c379a000000000000000000000000000000000000000000000000000000000815260040161038a90610dc3565b60405180910390fd5b6003546006546103a39190610e12565b3410156103e5576040517f08c379a00000000000000000000000000000000000000000000000000000000081526004016103dc90610eb8565b60405180910390fd5b600460009054906101000a900473ffffffffffffffffffffffffffffffffffffffff1673ffffffffffffffffffffffffffffffffffffffff163373ffffffffffffffffffffffffffffffffffffffff1603610475576040517f08c379a000000000000000000000000000000000000000000000000000000000815260040161046c90610f4a565b60405180910390fd5b600760009054906101000a900460ff16156104c5576040517f08c379a00000000000000000000000000000000000000000000000000000000081526004016104bc90610fb6565b60405180910390fd5b600073ffffffffffffffffffffffffffffffffffffffff16600560009054906101000a900473ffffffffffffffffffffffffffffffffffffffff1673ffffffffffffffffffffffffffffffffffffffff16146106015760065460086000600560009054906101000a900473ffffffffffffffffffffffffffffffffffffffff1673ffffffffffffffffffffffffffffffffffffffff1673ffffffffffffffffffffffffffffffffffffffff168152602001908152602001600020600082825461058e9190610e12565b92505081905550600560009054906101000a900473ffffffffffffffffffffffffffffffffffffffff1673ffffffffffffffffffffffffffffffffffffffff166108fc6006549081150290604051600060405180830381858888f193505050501580156105ff573d6000803e3d6000fd5b505b33600560006101000a81548173ffffffffffffffffffffffffffffffffffffffff021916908373ffffffffffffffffffffffffffffffffffffffff16021790555034600681905550565b60608060008060008060008060006001600254600354600460009054906101000a900473ffffffffffffffffffffffffffffffffffffffff16600560009054906101000a900473ffffffffffffffffffffffffffffffffffffffff16600654600760009054906101000a900460ff168780546106c690610d20565b80601f01602080910402602001604051908101604052809291908181526020018280546106f290610d20565b801561073f5780601f106107145761010080835404028352916020019161073f565b820191906000526020600020905b81548152906001019060200180831161072257829003601f168201915b5050505050975086805461075290610d20565b80601f016020809104026020016040519081016040528092919081815260200182805461077e90610d20565b80156107cb5780601f106107a0576101008083540402835291602001916107cb565b820191906000526020600020905b8154815290600101906020018083116107ae57829003601f168201915b50505050509650975097509750975097509750975097509091929394959697565b60086020528060005260406000206000915090505481565b60025481565b6001805461081790610d20565b80601f016020809104026020016040519081016040528092919081815260200182805461084390610d20565b80156108905780601f1061086557610100808354040283529160200191610890565b820191906000526020600020905b81548152906001019060200180831161087357829003601f168201915b505050505081565b600560009054906101000a900473ffffffffffffffffffffffffffffffffffffffff1681565b60035481565b60065481565b600460009054906101000a900473ffffffffffffffffffffffffffffffffffffffff1673ffffffffffffffffffffffffffffffffffffffff163373ffffffffffffffffffffffffffffffffffffffff161461095a576040517f08c379a000000000000000000000000000000000000000000000000000000000815260040161095190611022565b60405180910390fd5b600760009054906101000a900460ff16156109aa576040517f08c379a00000000000000000000000000000000000000000000000000000000081526004016109a19061108e565b60405180910390fd5b6001600760006101000a81548160ff0219169083151502179055507fdaec4582d5d9595688c8c98545fdd1c696d41c6aeaeb636737e84ed2f5c00eda600560009054906101000a900473ffffffffffffffffffffffffffffffffffffffff16600654604051610a1a9291906110ae565b60405180910390a1600460009054906101000a900473ffffffffffffffffffffffffffffffffffffffff1673ffffffffffffffffffffffffffffffffffffffff166108fc6006549081150290604051600060405180830381858888f19350505050158015610a8c573d6000803e3d6000fd5b50565b600073ffffffffffffffffffffffffffffffffffffffff82169050919050565b6000610aba82610a8f565b9050919050565b610aca81610aaf565b82525050565b6000602082019050610ae56000830184610ac1565b92915050565b600081519050919050565b600082825260208201905092915050565b60005b83811015610b25578082015181840152602081019050610b0a565b60008484015250505050565b6000601f19601f8301169050919050565b6000610b4d82610aeb565b610b578185610af6565b9350610b67818560208601610b07565b610b7081610b31565b840191505092915050565b60006020820190508181036000830152610b958184610b42565b905092915050565b60008115159050919050565b610bb281610b9d565b82525050565b6000602082019050610bcd6000830184610ba9565b92915050565b6000819050919050565b610be681610bd3565b82525050565b6000610100820190508181036000830152610c07818b610b42565b90508181036020830152610c1b818a610b42565b9050610c2a6040830189610bdd565b610c376060830188610bdd565b610c446080830187610ac1565b610c5160a0830186610ac1565b610c5e60c0830185610bdd565b610c6b60e0830184610ba9565b9998505050505050505050565b600080fd5b610c8681610aaf565b8114610c9157600080fd5b50565b600081359050610ca381610c7d565b92915050565b600060208284031215610cbf57610cbe610c78565b5b6000610ccd84828501610c94565b91505092915050565b6000602082019050610ceb6000830184610bdd565b92915050565b7f4e487b7100000000000000000000000000000000000000000000000000000000600052602260045260246000fd5b60006002820490506001821680610d3857607f821691505b602082108103610d4b57610d4a610cf1565b5b50919050565b7f42696420616d6f756e74206973206c657373207468616e20696e697469616c2060008201527f6269642e00000000000000000000000000000000000000000000000000000000602082015250565b6000610dad602483610af6565b9150610db882610d51565b604082019050919050565b60006020820190508181036000830152610ddc81610da0565b9050919050565b7f4e487b7100000000000000000000000000000000000000000000000000000000600052601160045260246000fd5b6000610e1d82610bd3565b9150610e2883610bd3565b9250828201905080821115610e4057610e3f610de3565b5b92915050565b7f42696420616d6f756e74206973206c657373207468616e2063757272656e742060008201527f626964202b2062696420696e6372656d656e742e000000000000000000000000602082015250565b6000610ea2603483610af6565b9150610ead82610e46565b604082019050919050565b60006020820190508181036000830152610ed181610e95565b9050919050565b7f43726561746f722063616e6e6f7420626964206f6e207468656972206f776e2060008201527f61756374696f6e2e000000000000000000000000000000000000000000000000602082015250565b6000610f34602883610af6565b9150610f3f82610ed8565b604082019050919050565b60006020820190508181036000830152610f6381610f27565b9050919050565b7f41756374696f6e2068617320616c726561647920656e6465642e000000000000600082015250565b6000610fa0601a83610af6565b9150610fab82610f6a565b602082019050919050565b60006020820190508181036000830152610fcf81610f93565b9050919050565b7f4f6e6c792063726561746f722063616e20656e64207468652061756374696f6e600082015250565b600061100c602083610af6565b915061101782610fd6565b602082019050919050565b6000602082019050818103600083015261103b81610fff565b9050919050565b7f41756374696f6e2068617320616c726561647920656e64656400000000000000600082015250565b6000611078601983610af6565b915061108382611042565b602082019050919050565b600060208201905081810360008301526110a78161106b565b9050919050565b60006040820190506110c36000830185610ac1565b6110d06020830184610bdd565b939250505056fea264697066735822122016b14a571c7d4d6f8110e55658bc9ce201c40dcb3c8c9b85441ca9e8bd8e15b264736f6c63430008130033",
  "immutableReferences": {},
  "source": "// SPDX-License-Identifier: GPL-3.0\r\n// Created By: Himanshu Bharti\r\npragma solidity ^0.8.0;\r\n\r\ncontract Auction {\r\n    string public name;\r\n    string public description;\r\n    uint256 public initialBid;\r\n    uint256 public bidIncrement;\r\n    address public creator;\r\n    address public highestBidder;\r\n    uint256 public highestBid;\r\n    bool public ended;\r\n    \r\n    mapping(address => uint256) public bids;\r\n    \r\n    event AuctionEnded(address winner, uint256 amount);\r\n    \r\n    constructor(\r\n        string memory _name,\r\n        string memory _description,\r\n        uint256 _initialBid,\r\n        uint256 _bidIncrement,\r\n        address _creator\r\n    ) {\r\n        name = _name;\r\n        description = _description;\r\n        initialBid = _initialBid;\r\n        bidIncrement = _bidIncrement;\r\n        creator = _creator;\r\n    }\r\n    \r\n   function bid() public payable {\r\n        require(msg.value >= initialBid, \"Bid amount is less than initial bid.\");\r\n        require(msg.value >= highestBid + bidIncrement, \"Bid amount is less than current bid + bid increment.\");\r\n        require(msg.sender != creator, \"Creator cannot bid on their own auction.\");\r\n        require(!ended, \"Auction has already ended.\");\r\n\r\n        // Refund the previous highest bidder\r\n        if (highestBidder != address(0)) {\r\n            bids[highestBidder] += highestBid;\r\n            payable(highestBidder).transfer(highestBid);\r\n        }\r\n\r\n        // Update the highest bidder and highest bid amount\r\n        highestBidder = msg.sender;\r\n        highestBid = msg.value;\r\n    }\r\n    \r\n    function endAuction() public payable {\r\n        require(msg.sender == creator, \"Only creator can end the auction\");\r\n        require(!ended, \"Auction has already ended\");\r\n        \r\n        ended = true;\r\n        emit AuctionEnded(highestBidder, highestBid);\r\n        payable(creator).transfer(highestBid);\r\n    }\r\n    \r\n    function getAuctionDetails() public view returns (\r\n        string memory,\r\n        string memory,\r\n        uint256,\r\n        uint256,\r\n        address,\r\n        address,\r\n        uint256,\r\n        bool\r\n    ) {\r\n        return (\r\n            name,\r\n            description,\r\n            initialBid,\r\n            bidIncrement,\r\n            creator,\r\n            highestBidder,\r\n            highestBid,\r\n            ended\r\n        );\r\n    }\r\n}\r\n",
  "sourcePath": "C:\\Users\\Acer\\Documents\\projects\\bidchain\\smart-contract\\contracts\\Auction.sol",
  "compiler": {
    "name": "solc",
    "version": "0.8.19+commit.7dd6d404.Emscripten.clang"
  },
  "schemaVersion": "3.4.13",
  "updatedAt": "2023-04-26T21:44:28.480Z",
  "devdoc": {
    "kind": "dev",
    "methods": {},
    "version": 1
  },
  "userdoc": {
    "kind": "user",
    "methods": {},
    "version": 1
  }
}